{"abi":[{"type":"constructor","inputs":[{"name":"_botAddress","type":"address","internalType":"address"},{"name":"_initialTokens","type":"tuple[]","internalType":"struct TelegramMultiTokenPriceBetting.TokenConfig[]","components":[{"name":"symbol","type":"string","internalType":"string"},{"name":"name","type":"string","internalType":"string"},{"name":"priceOracle","type":"address","internalType":"address"}]}],"stateMutability":"nonpayable"},{"type":"function","name":"BETTING_CUTOFF","inputs":[],"outputs":[{"name":"","type":"uint256","internalType":"uint256"}],"stateMutability":"view"},{"type":"function","name":"BET_DURATION","inputs":[],"outputs":[{"name":"","type":"uint256","internalType":"uint256"}],"stateMutability":"view"},{"type":"function","name":"addToken","inputs":[{"name":"_symbol","type":"string","internalType":"string"},{"name":"_name","type":"string","internalType":"string"},{"name":"_priceOracle","type":"address","internalType":"address"}],"outputs":[],"stateMutability":"nonpayable"},{"type":"function","name":"betParticipants","inputs":[{"name":"","type":"uint256","internalType":"uint256"},{"name":"","type":"uint256","internalType":"uint256"}],"outputs":[{"name":"","type":"address","internalType":"address"}],"stateMutability":"view"},{"type":"function","name":"bets","inputs":[{"name":"","type":"uint256","internalType":"uint256"}],"outputs":[{"name":"id","type":"uint256","internalType":"uint256"},{"name":"tokenId","type":"bytes32","internalType":"bytes32"},{"name":"startTime","type":"uint256","internalType":"uint256"},{"name":"endTime","type":"uint256","internalType":"uint256"},{"name":"startPrice","type":"int256","internalType":"int256"},{"name":"endPrice","type":"int256","internalType":"int256"},{"name":"totalPoolHigher","type":"uint256","internalType":"uint256"},{"name":"totalPoolLower","type":"uint256","internalType":"uint256"},{"name":"totalBets","type":"uint256","internalType":"uint256"},{"name":"status","type":"uint8","internalType":"enum TelegramMultiTokenPriceBetting.BetStatus"},{"name":"resolved","type":"bool","internalType":"bool"}],"stateMutability":"view"},{"type":"function","name":"botAddress","inputs":[],"outputs":[{"name":"","type":"address","internalType":"address"}],"stateMutability":"view"},{"type":"function","name":"calculatePotentialReward","inputs":[{"name":"_betId","type":"uint256","internalType":"uint256"},{"name":"_user","type":"address","internalType":"address"}],"outputs":[{"name":"","type":"uint256","internalType":"uint256"}],"stateMutability":"view"},{"type":"function","name":"canResolveBet","inputs":[{"name":"_betId","type":"uint256","internalType":"uint256"}],"outputs":[{"name":"","type":"bool","internalType":"bool"}],"stateMutability":"view"},{"type":"function","name":"claimReward","inputs":[{"name":"_betId","type":"uint256","internalType":"uint256"}],"outputs":[],"stateMutability":"nonpayable"},{"type":"function","name":"createBet","inputs":[{"name":"_tokenId","type":"bytes32","internalType":"bytes32"}],"outputs":[],"stateMutability":"nonpayable"},{"type":"function","name":"currentBetId","inputs":[],"outputs":[{"name":"","type":"uint256","internalType":"uint256"}],"stateMutability":"view"},{"type":"function","name":"emergencyWithdraw","inputs":[],"outputs":[],"stateMutability":"nonpayable"},{"type":"function","name":"getActiveBetsForTokens","inputs":[{"name":"_tokenIds","type":"bytes32[]","internalType":"bytes32[]"}],"outputs":[{"name":"activeBets","type":"uint256[]","internalType":"uint256[]"}],"stateMutability":"view"},{"type":"function","name":"getBetDetails","inputs":[{"name":"_betId","type":"uint256","internalType":"uint256"}],"outputs":[{"name":"","type":"tuple","internalType":"struct TelegramMultiTokenPriceBetting.Bet","components":[{"name":"id","type":"uint256","internalType":"uint256"},{"name":"tokenId","type":"bytes32","internalType":"bytes32"},{"name":"startTime","type":"uint256","internalType":"uint256"},{"name":"endTime","type":"uint256","internalType":"uint256"},{"name":"startPrice","type":"int256","internalType":"int256"},{"name":"endPrice","type":"int256","internalType":"int256"},{"name":"totalPoolHigher","type":"uint256","internalType":"uint256"},{"name":"totalPoolLower","type":"uint256","internalType":"uint256"},{"name":"totalBets","type":"uint256","internalType":"uint256"},{"name":"status","type":"uint8","internalType":"enum TelegramMultiTokenPriceBetting.BetStatus"},{"name":"resolved","type":"bool","internalType":"bool"}]}],"stateMutability":"view"},{"type":"function","name":"getBetParticipants","inputs":[{"name":"_betId","type":"uint256","internalType":"uint256"}],"outputs":[{"name":"","type":"address[]","internalType":"address[]"}],"stateMutability":"view"},{"type":"function","name":"getContractBalance","inputs":[],"outputs":[{"name":"","type":"uint256","internalType":"uint256"}],"stateMutability":"view"},{"type":"function","name":"getCurrentBetId","inputs":[],"outputs":[{"name":"","type":"uint256","internalType":"uint256"}],"stateMutability":"view"},{"type":"function","name":"getLatestPrice","inputs":[{"name":"_tokenId","type":"bytes32","internalType":"bytes32"}],"outputs":[{"name":"","type":"int256","internalType":"int256"},{"name":"","type":"uint256","internalType":"uint256"}],"stateMutability":"view"},{"type":"function","name":"getTokenBetHistory","inputs":[{"name":"_tokenId","type":"bytes32","internalType":"bytes32"}],"outputs":[{"name":"","type":"uint256[]","internalType":"uint256[]"}],"stateMutability":"view"},{"type":"function","name":"getTokenId","inputs":[{"name":"_symbol","type":"string","internalType":"string"}],"outputs":[{"name":"","type":"bytes32","internalType":"bytes32"}],"stateMutability":"pure"},{"type":"function","name":"getTokenInfo","inputs":[{"name":"_tokenId","type":"bytes32","internalType":"bytes32"}],"outputs":[{"name":"","type":"tuple","internalType":"struct TelegramMultiTokenPriceBetting.TokenInfo","components":[{"name":"symbol","type":"string","internalType":"string"},{"name":"name","type":"string","internalType":"string"},{"name":"priceOracle","type":"address","internalType":"contract AggregatorV3Interface"},{"name":"isActive","type":"bool","internalType":"bool"},{"name":"decimals","type":"uint8","internalType":"uint8"}]}],"stateMutability":"view"},{"type":"function","name":"getUserBet","inputs":[{"name":"_betId","type":"uint256","internalType":"uint256"},{"name":"_user","type":"address","internalType":"address"}],"outputs":[{"name":"","type":"tuple","internalType":"struct TelegramMultiTokenPriceBetting.UserBet","components":[{"name":"amount","type":"uint256","internalType":"uint256"},{"name":"direction","type":"uint8","internalType":"enum TelegramMultiTokenPriceBetting.Direction"},{"name":"claimed","type":"bool","internalType":"bool"}]}],"stateMutability":"view"},{"type":"function","name":"minimumBet","inputs":[],"outputs":[{"name":"","type":"uint256","internalType":"uint256"}],"stateMutability":"view"},{"type":"function","name":"owner","inputs":[],"outputs":[{"name":"","type":"address","internalType":"address"}],"stateMutability":"view"},{"type":"function","name":"pause","inputs":[],"outputs":[],"stateMutability":"nonpayable"},{"type":"function","name":"paused","inputs":[],"outputs":[{"name":"","type":"bool","internalType":"bool"}],"stateMutability":"view"},{"type":"function","name":"placeBet","inputs":[{"name":"_betId","type":"uint256","internalType":"uint256"},{"name":"_direction","type":"uint8","internalType":"enum TelegramMultiTokenPriceBetting.Direction"}],"outputs":[],"stateMutability":"payable"},{"type":"function","name":"platformFeePercent","inputs":[],"outputs":[{"name":"","type":"uint256","internalType":"uint256"}],"stateMutability":"view"},{"type":"function","name":"renounceOwnership","inputs":[],"outputs":[],"stateMutability":"nonpayable"},{"type":"function","name":"resolveBet","inputs":[{"name":"_betId","type":"uint256","internalType":"uint256"}],"outputs":[],"stateMutability":"nonpayable"},{"type":"function","name":"resolveBets","inputs":[{"name":"_betIds","type":"uint256[]","internalType":"uint256[]"}],"outputs":[],"stateMutability":"nonpayable"},{"type":"function","name":"setBotAddress","inputs":[{"name":"_newBot","type":"address","internalType":"address"}],"outputs":[],"stateMutability":"nonpayable"},{"type":"function","name":"setMinimumBet","inputs":[{"name":"_newMinimum","type":"uint256","internalType":"uint256"}],"outputs":[],"stateMutability":"nonpayable"},{"type":"function","name":"setPlatformFee","inputs":[{"name":"_newFeePercent","type":"uint256","internalType":"uint256"}],"outputs":[],"stateMutability":"nonpayable"},{"type":"function","name":"setTokenStatus","inputs":[{"name":"_tokenId","type":"bytes32","internalType":"bytes32"},{"name":"_isActive","type":"bool","internalType":"bool"}],"outputs":[],"stateMutability":"nonpayable"},{"type":"function","name":"tokenBetHistory","inputs":[{"name":"","type":"bytes32","internalType":"bytes32"},{"name":"","type":"uint256","internalType":"uint256"}],"outputs":[{"name":"","type":"uint256","internalType":"uint256"}],"stateMutability":"view"},{"type":"function","name":"tokens","inputs":[{"name":"","type":"bytes32","internalType":"bytes32"}],"outputs":[{"name":"symbol","type":"string","internalType":"string"},{"name":"name","type":"string","internalType":"string"},{"name":"priceOracle","type":"address","internalType":"contract AggregatorV3Interface"},{"name":"isActive","type":"bool","internalType":"bool"},{"name":"decimals","type":"uint8","internalType":"uint8"}],"stateMutability":"view"},{"type":"function","name":"transferOwnership","inputs":[{"name":"newOwner","type":"address","internalType":"address"}],"outputs":[],"stateMutability":"nonpayable"},{"type":"function","name":"unpause","inputs":[],"outputs":[],"stateMutability":"nonpayable"},{"type":"function","name":"updateTokenOracle","inputs":[{"name":"_tokenId","type":"bytes32","internalType":"bytes32"},{"name":"_newOracle","type":"address","internalType":"address"}],"outputs":[],"stateMutability":"nonpayable"},{"type":"function","name":"userBets","inputs":[{"name":"","type":"uint256","internalType":"uint256"},{"name":"","type":"address","internalType":"address"}],"outputs":[{"name":"amount","type":"uint256","internalType":"uint256"},{"name":"direction","type":"uint8","internalType":"enum TelegramMultiTokenPriceBetting.Direction"},{"name":"claimed","type":"bool","internalType":"bool"}],"stateMutability":"view"},{"type":"event","name":"BetCreated","inputs":[{"name":"betId","type":"uint256","indexed":true,"internalType":"uint256"},{"name":"tokenId","type":"bytes32","indexed":true,"internalType":"bytes32"},{"name":"startTime","type":"uint256","indexed":false,"internalType":"uint256"},{"name":"endTime","type":"uint256","indexed":false,"internalType":"uint256"},{"name":"startPrice","type":"int256","indexed":false,"internalType":"int256"}],"anonymous":false},{"type":"event","name":"BetPlaced","inputs":[{"name":"betId","type":"uint256","indexed":true,"internalType":"uint256"},{"name":"user","type":"address","indexed":true,"internalType":"address"},{"name":"amount","type":"uint256","indexed":false,"internalType":"uint256"},{"name":"direction","type":"uint8","indexed":false,"internalType":"enum TelegramMultiTokenPriceBetting.Direction"}],"anonymous":false},{"type":"event","name":"BetResolved","inputs":[{"name":"betId","type":"uint256","indexed":true,"internalType":"uint256"},{"name":"tokenId","type":"bytes32","indexed":true,"internalType":"bytes32"},{"name":"endPrice","type":"int256","indexed":false,"internalType":"int256"},{"name":"winningDirection","type":"uint8","indexed":false,"internalType":"enum TelegramMultiTokenPriceBetting.Direction"}],"anonymous":false},{"type":"event","name":"BotAddressUpdated","inputs":[{"name":"oldBot","type":"address","indexed":false,"internalType":"address"},{"name":"newBot","type":"address","indexed":false,"internalType":"address"}],"anonymous":false},{"type":"event","name":"MinimumBetUpdated","inputs":[{"name":"oldMin","type":"uint256","indexed":false,"internalType":"uint256"},{"name":"newMin","type":"uint256","indexed":false,"internalType":"uint256"}],"anonymous":false},{"type":"event","name":"OwnershipTransferred","inputs":[{"name":"previousOwner","type":"address","indexed":true,"internalType":"address"},{"name":"newOwner","type":"address","indexed":true,"internalType":"address"}],"anonymous":false},{"type":"event","name":"Paused","inputs":[{"name":"account","type":"address","indexed":false,"internalType":"address"}],"anonymous":false},{"type":"event","name":"RewardClaimed","inputs":[{"name":"betId","type":"uint256","indexed":true,"internalType":"uint256"},{"name":"user","type":"address","indexed":true,"internalType":"address"},{"name":"amount","type":"uint256","indexed":false,"internalType":"uint256"}],"anonymous":false},{"type":"event","name":"TokenAdded","inputs":[{"name":"tokenId","type":"bytes32","indexed":true,"internalType":"bytes32"},{"name":"symbol","type":"string","indexed":false,"internalType":"string"},{"name":"name","type":"string","indexed":false,"internalType":"string"},{"name":"oracle","type":"address","indexed":false,"internalType":"address"}],"anonymous":false},{"type":"event","name":"TokenStatusChanged","inputs":[{"name":"tokenId","type":"bytes32","indexed":true,"internalType":"bytes32"},{"name":"isActive","type":"bool","indexed":false,"internalType":"bool"}],"anonymous":false},{"type":"event","name":"TokenUpdated","inputs":[{"name":"tokenId","type":"bytes32","indexed":true,"internalType":"bytes32"},{"name":"newOracle","type":"address","indexed":false,"internalType":"address"}],"anonymous":false},{"type":"event","name":"Unpaused","inputs":[{"name":"account","type":"address","indexed":false,"internalType":"address"}],"anonymous":false},{"type":"error","name":"EnforcedPause","inputs":[]},{"type":"error","name":"ExpectedPause","inputs":[]},{"type":"error","name":"OwnableInvalidOwner","inputs":[{"name":"owner","type":"address","internalType":"address"}]},{"type":"error","name":"OwnableUnauthorizedAccount","inputs":[{"name":"account","type":"address","internalType":"address"}]},{"type":"error","name":"ReentrancyGuardReentrantCall","inputs":[]}],"bytecode":{"object":"0x608060405266038d7ea4c6800060085560c860095534801561002057600080fd5b50604051613a9f380380613a9f83398101604081905261003f916104f2565b6001600055338061006b57604051631e4fbdf760e01b8152600060048201526024015b60405180910390fd5b61007481610387565b50600a80546001600160a01b0319166001600160a01b038416179055600060078190555b815181101561037f5760008282815181106100b5576100b5610635565b6020026020010151600001516040516020016100d1919061064b565b60408051601f198184030181529181528151602092830120600081815260029384905291909120909101549091506001600160a01b0316156101555760405162461bcd60e51b815260206004820152601460248201527f546f6b656e20616c7265616479206578697374730000000000000000000000006044820152606401610062565b600083838151811061016957610169610635565b60200260200101516040015190506000816001600160a01b031663313ce5676040518163ffffffff1660e01b8152600401602060405180830381865afa1580156101b7573d6000803e3d6000fd5b505050506040513d601f19601f820116820180604052508101906101db9190610667565b90506040518060a001604052808686815181106101fa576101fa610635565b602002602001015160000151815260200186868151811061021d5761021d610635565b6020026020010151602001518152602001836001600160a01b031681526020016001151581526020018260ff16815250600260008581526020019081526020016000206000820151816000019081610275919061071c565b506020820151600182019061028a908261071c565b50604082015160029091018054606084015160809094015160ff16600160a81b0260ff60a81b19941515600160a01b026001600160a81b03199092166001600160a01b03909416939093171792909216179055845183907fbebb98910d9a14b896fa6aab5a5b6ced80d42eb330afc7677e83369b92edd44b9087908790811061031557610315610635565b60200260200101516000015187878151811061033357610333610635565b60200260200101516020015188888151811061035157610351610635565b60200260200101516040015160405161036c93929190610807565b60405180910390a2505050600101610098565b505050610845565b600180546001600160a01b038381166001600160a01b0319831681179093556040519116919082907f8be0079c531659141344cd1fd0a4f28419497f9722a3daafe3b4186f6b6457e090600090a35050565b80516001600160a01b03811681146103f057600080fd5b919050565b634e487b7160e01b600052604160045260246000fd5b604051606081016001600160401b038111828210171561042d5761042d6103f5565b60405290565b604051601f8201601f191681016001600160401b038111828210171561045b5761045b6103f5565b604052919050565b60005b8381101561047e578181015183820152602001610466565b50506000910152565b600082601f83011261049857600080fd5b81516001600160401b038111156104b1576104b16103f5565b6104c4601f8201601f1916602001610433565b8181528460208386010111156104d957600080fd5b6104ea826020830160208701610463565b949350505050565b6000806040838503121561050557600080fd5b61050e836103d9565b602084810151919350906001600160401b038082111561052d57600080fd5b818601915086601f83011261054157600080fd5b815181811115610553576105536103f5565b8060051b610562858201610433565b918252838101850191858101908a84111561057c57600080fd5b86860192505b838310156106245782518581111561059a5760008081fd5b86016060818d03601f19018113156105b25760008081fd5b6105ba61040b565b89830151888111156105cc5760008081fd5b6105da8f8c83870101610487565b8252506040830151888111156105f05760008081fd5b6105fe8f8c83870101610487565b8b8301525061060e8284016103d9565b6040820152845250509186019190860190610582565b809750505050505050509250929050565b634e487b7160e01b600052603260045260246000fd5b6000825161065d818460208701610463565b9190910192915050565b60006020828403121561067957600080fd5b815160ff8116811461068a57600080fd5b9392505050565b600181811c908216806106a557607f821691505b6020821081036106c557634e487b7160e01b600052602260045260246000fd5b50919050565b601f821115610717576000816000526020600020601f850160051c810160208610156106f45750805b601f850160051c820191505b8181101561071357828155600101610700565b5050505b505050565b81516001600160401b03811115610735576107356103f5565b610749816107438454610691565b846106cb565b602080601f83116001811461077e57600084156107665750858301515b600019600386901b1c1916600185901b178555610713565b600085815260208120601f198616915b828110156107ad5788860151825594840194600190910190840161078e565b50858210156107cb5787850151600019600388901b60f8161c191681555b5050505050600190811b01905550565b600081518084526107f3816020860160208601610463565b601f01601f19169290920160200192915050565b60608152600061081a60608301866107db565b828103602084015261082c81866107db565b91505060018060a01b0383166040830152949350505050565b61324b806108546000396000f3fe6080604052600436106102465760003560e01c80636fbd36a411610139578063a8159ce5116100b6578063c56840991161007a578063c568409914610783578063db2e21bc146107b0578063e53d4c2d146107c5578063ea0186d7146107db578063f2fde38b146107f0578063fa3d24f21461081057600080fd5b8063a8159ce5146106cb578063ae169a50146106eb578063b2ee2f011461070b578063c03fb87c14610740578063c38a8afd1461076d57600080fd5b80638772ae3c116100fd5780638772ae3c146106265780638c639a85146106465780638da5cb5b1461065c578063904194a31461067a5780639d854c2b146106ab57600080fd5b80636fbd36a414610562578063715018a6146105825780637d06a8e11461059757806380a818d5146105f15780638456cb591461061157600080fd5b80633df2967e116101c75780634db798611161018b5780634db79861146104cc578063511e4198146104f95780635b4a9b511461050e5780635c975abb146105245780636f9fb98a1461054f57600080fd5b80633df2967e1461042a5780633f4ba83a1461045757806345551b451461046c5780634bf4f4231461048c5780634c36c36e146104ac57600080fd5b80631e7663bc1161020e5780631e7663bc146102fd57806322af00fa1461032b5780632aa1107f146103bd5780632d4f40c6146103dd5780632d8b70a1146103fd57600080fd5b806303edf9141461024b578063107c68a31461026057806312c20e841461028057806312e8e2c3146102bd57806313f8e77d146102dd575b600080fd5b61025e61025936600461291f565b610830565b005b34801561026c57600080fd5b5061025e61027b366004612953565b610bc2565b34801561028c57600080fd5b506102a061029b36600461296c565b610ed8565b6040516001600160a01b0390911681526020015b60405180910390f35b3480156102c957600080fd5b5061025e6102d8366004612953565b610f10565b3480156102e957600080fd5b5061025e6102f83660046129aa565b610f67565b34801561030957600080fd5b5061031d610318366004612a79565b6110cc565b6040519081526020016102b4565b34801561033757600080fd5b506103a6610346366004612953565b60036020819052600091825260409091208054600182015460028301549383015460048401546005850154600686015460078701546008880154600990980154969895979596949593949293919290919060ff808216916101009004168b565b6040516102b49b9a99989796959493929190612ad8565b3480156103c957600080fd5b5061025e6103d8366004612b3c565b6110fc565b3480156103e957600080fd5b5061025e6103f8366004612b66565b6111c1565b34801561040957600080fd5b5061041d610418366004612953565b61122b565b6040516102b49190612bd8565b34801561043657600080fd5b5061044a610445366004612953565b6113ce565b6040516102b49190612c49565b34801561046357600080fd5b5061025e6114d5565b34801561047857600080fd5b5061031d61048736600461296c565b6114e7565b34801561049857600080fd5b50600a546102a0906001600160a01b031681565b3480156104b857600080fd5b5061025e6104c7366004612953565b611518565b3480156104d857600080fd5b506104ec6104e7366004612d1a565b611554565b6040516102b49190612d5c565b34801561050557600080fd5b5061031d601e81565b34801561051a57600080fd5b5061031d60075481565b34801561053057600080fd5b50600154600160a01b900460ff165b60405190151581526020016102b4565b34801561055b57600080fd5b504761031d565b34801561056e57600080fd5b5061031d61057d3660046129aa565b6116ed565b34801561058e57600080fd5b5061025e611866565b3480156105a357600080fd5b506105e26105b23660046129aa565b60046020908152600092835260408084209091529082529020805460019091015460ff8082169161010090041683565b6040516102b493929190612db0565b3480156105fd57600080fd5b5061053f61060c366004612953565b611878565b34801561061d57600080fd5b5061025e6119a6565b34801561063257600080fd5b5061025e610641366004612953565b6119b6565b34801561065257600080fd5b5061031d60095481565b34801561066857600080fd5b506001546001600160a01b03166102a0565b34801561068657600080fd5b5061069a610695366004612953565b6119fc565b6040516102b4959493929190612dd4565b3480156106b757600080fd5b506104ec6106c6366004612953565b611b4d565b3480156106d757600080fd5b5061025e6106e6366004612d1a565b611baf565b3480156106f757600080fd5b5061025e610706366004612953565b611c9d565b34801561071757600080fd5b5061072b610726366004612953565b611fb6565b604080519283526020830191909152016102b4565b34801561074c57600080fd5b5061076061075b3660046129aa565b6120b2565b6040516102b49190612e23565b34801561077957600080fd5b5061031d60085481565b34801561078f57600080fd5b506107a361079e366004612953565b612169565b6040516102b49190612e4f565b3480156107bc57600080fd5b5061025e612205565b3480156107d157600080fd5b5061031d61012c81565b3480156107e757600080fd5b5060075461031d565b3480156107fc57600080fd5b5061025e61080b366004612b66565b61230f565b34801561081c57600080fd5b5061025e61082b366004612e90565b61234a565b8160075481111580156108435750600081115b6108685760405162461bcd60e51b815260040161085f90612f04565b60405180910390fd5b61087061254e565b610878612578565b6008543410156108bf5760405162461bcd60e51b815260206004820152601260248201527142657420616d6f756e7420746f6f206c6f7760701b604482015260640161085f565b600083815260036020526040812090600982015460ff1660028111156108e7576108e7612aae565b146109285760405162461bcd60e51b8152602060048201526011602482015270426574206973206e6f742061637469766560781b604482015260640161085f565b600181015460009081526002602081905260409091200154600160a01b900460ff1661098c5760405162461bcd60e51b8152602060048201526013602482015272546f6b656e206973206e6f742061637469766560681b604482015260640161085f565b601e816003015461099d9190612f42565b42106109e35760405162461bcd60e51b815260206004820152601560248201527410995d1d1a5b99c81c195c9a5bd90818db1bdcd959605a1b604482015260640161085f565b600084815260046020908152604080832033845290915290205415610a4a5760405162461bcd60e51b815260206004820152601e60248201527f5573657220616c726561647920626574206f6e207468697320726f756e640000604482015260640161085f565b6040518060600160405280348152602001846001811115610a6d57610a6d612aae565b81526000602091820181905286815260048252604080822033835283529020825181559082015160018281018054909160ff19909116908381811115610ab557610ab5612aae565b0217905550604091820151600191820180549115156101000261ff00199092169190911790556000868152600560209081529281208054928301815581529182200180546001600160a01b03191633179055836001811115610b1957610b19612aae565b03610b3d5734816006016000828254610b329190612f5b565b90915550610b579050565b34816007016000828254610b519190612f5b565b90915550505b600881018054906000610b6983612f6e565b9190505550336001600160a01b0316847fe90186097616cbeb30ffc786b44501e1362f5e0a316a96c5ab82a0551f9d2f053486604051610baa929190612f87565b60405180910390a350610bbd6001600055565b505050565b600a546001600160a01b03163314610c1c5760405162461bcd60e51b815260206004820152601f60248201527f4f6e6c7920626f742063616e2063616c6c20746869732066756e6374696f6e00604482015260640161085f565b610c24612578565b600081815260026020819052604090912001548190600160a01b900460ff16610c8f5760405162461bcd60e51b815260206004820152601f60248201527f546f6b656e206e6f7420737570706f72746564206f7220696e61637469766500604482015260640161085f565b60078054906000610c9f83612f6e565b90915550506000828152600260208190526040808320909101548151633fabe5a360e21b815291516001600160a01b039091169163feaf968c9160048083019260a09291908290030181865afa158015610cfd573d6000803e3d6000fd5b505050506040513d601f19601f82011682018060405250810190610d219190612fb5565b505050915050604051806101600160405280600754815260200184815260200142815260200161012c42610d559190612f5b565b81526020018281526020016000815260200160008152602001600081526020016000815260200160006002811115610d8f57610d8f612aae565b815260200160001515815250600360006007548152602001908152602001600020600082015181600001556020820151816001015560408201518160020155606082015181600301556080820151816004015560a0820151816005015560c0820151816006015560e0820151816007015561010082015181600801556101208201518160090160006101000a81548160ff02191690836002811115610e3657610e36612aae565b02179055506101409190910151600990910180549115156101000261ff0019909216919091179055600083815260066020908152604082206007805482546001810184559285529290932001555483907fbe33488a5936bdb2c3eefeb282f8017de8dce57442267706a953986abc568c0742610eb461012c82612f5b565b604080519283526020830191909152810185905260600160405180910390a3505050565b60056020528160005260406000208181548110610ef457600080fd5b6000918252602090912001546001600160a01b03169150829050565b610f186125a3565b6103e8811115610f625760405162461bcd60e51b81526020600482015260156024820152744665652063616e6e6f74206578636565642031302560581b604482015260640161085f565b600955565b610f6f6125a3565b600082815260026020819052604090912001546001600160a01b0316610fce5760405162461bcd60e51b8152602060048201526014602482015273151bdad95b88191bd95cc81b9bdd08195e1a5cdd60621b604482015260640161085f565b60008281526002602081815260409283902090910180546001600160a01b0319166001600160a01b038516908117909155825163313ce56760e01b81529251909263313ce5679260048083019391928290030181865afa158015611036573d6000803e3d6000fd5b505050506040513d601f19601f8201168201806040525081019061105a9190613005565b600083815260026020818152604092839020909101805460ff94909416600160a81b0260ff60a81b1990941693909317909255516001600160a01b038316815283917f2aada7c835843a942d6bae43540591b084921c87edbb049c55d49d114424279491015b60405180910390a25050565b6000816040516020016110df9190613028565b604051602081830303815290604052805190602001209050919050565b6111046125a3565b600082815260026020819052604090912001546001600160a01b03166111635760405162461bcd60e51b8152602060048201526014602482015273151bdad95b88191bd95cc81b9bdd08195e1a5cdd60621b604482015260640161085f565b600082815260026020819052604091829020018054831515600160a01b0260ff60a01b199091161790555182907f51012cfdcb634120fac9c3c058e44ca9d98eaabd1198969b2d1f3993ad3bcc8e906110c090841515815260200190565b6111c96125a3565b600a80546001600160a01b038381166001600160a01b031983168117909355604080519190921680825260208201939093527f8f92dafbdfc7fad31b0a85cc9cc0f7121bd9ec12a37640055a866d43bb0e981a91015b60405180910390a15050565b6040805160a08101825260608082526020820181905260009282018390528101829052608081019190915260008281526002602052604090819020815160a0810190925280548290829061127e90613044565b80601f01602080910402602001604051908101604052809291908181526020018280546112aa90613044565b80156112f75780601f106112cc576101008083540402835291602001916112f7565b820191906000526020600020905b8154815290600101906020018083116112da57829003601f168201915b5050505050815260200160018201805461131090613044565b80601f016020809104026020016040519081016040528092919081815260200182805461133c90613044565b80156113895780601f1061135e57610100808354040283529160200191611389565b820191906000526020600020905b81548152906001019060200180831161136c57829003601f168201915b5050509183525050600291909101546001600160a01b038116602083015260ff600160a01b8204811615156040840152600160a81b9091041660609091015292915050565b6113d6612897565b8160075481111580156113e95750600081115b6114055760405162461bcd60e51b815260040161085f90612f04565b60036000848152602001908152602001600020604051806101600160405290816000820154815260200160018201548152602001600282015481526020016003820154815260200160048201548152602001600582015481526020016006820154815260200160078201548152602001600882015481526020016009820160009054906101000a900460ff1660028111156114a2576114a2612aae565b60028111156114b3576114b3612aae565b815260099190910154610100900460ff16151560209091015291505b50919050565b6114dd6125a3565b6114e56125d0565b565b6006602052816000526040600020818154811061150357600080fd5b90600052602060002001600091509150505481565b80600754811115801561152b5750600081115b6115475760405162461bcd60e51b815260040161085f90612f04565b61155082612625565b5050565b606060008060075467ffffffffffffffff811115611574576115746129d6565b60405190808252806020026020018201604052801561159d578160200160208202803683370190505b50905060015b600754811161165457600081815260036020526040812090600982015460ff1660028111156115d4576115d4612aae565b036116415760005b8681101561163f578787828181106115f6576115f6613078565b90506020020135826001015403611637578284868151811061161a5761161a613078565b60209081029190910101528461162f81612f6e565b95505061163f565b6001016115dc565b505b508061164c81612f6e565b9150506115a3565b508167ffffffffffffffff81111561166e5761166e6129d6565b604051908082528060200260200182016040528015611697578160200160208202803683370190505b50925060005b828110156116e4578181815181106116b7576116b7613078565b60200260200101518482815181106116d1576116d1613078565b602090810291909101015260010161169d565b50505092915050565b60008260075481111580156117025750600081115b61171e5760405162461bcd60e51b815260040161085f90612f04565b6000848152600360209081526040808320600483528184206001600160a01b03881685529092529091208054158061176057506009820154610100900460ff16155b156117705760009350505061185f565b6000826004015483600501541361178857600161178b565b60005b905080600181111561179f5761179f612aae565b60018084015460ff16908111156117b8576117b8612aae565b146117c9576000945050505061185f565b6000836007015484600601546117df9190612f5b565b90506000808360018111156117f6576117f6612aae565b1461180557846007015461180b565b84600601545b9050600061271060095484611820919061308e565b61182a91906130a5565b905060006118388285612f42565b90508281876000015461184b919061308e565b61185591906130a5565b9850505050505050505b5092915050565b61186e6125a3565b6114e560006127d8565b600081600754811115801561188d5750600081115b6118a95760405162461bcd60e51b815260040161085f90612f04565b600060036000858152602001908152602001600020604051806101600160405290816000820154815260200160018201548152602001600282015481526020016003820154815260200160048201548152602001600582015481526020016006820154815260200160078201548152602001600882015481526020016009820160009054906101000a900460ff16600281111561194857611948612aae565b600281111561195957611959612aae565b815260099190910154610100900460ff16151560209091015290506000816101200151600281111561198d5761198d612aae565b14801561199e575080606001514210155b949350505050565b6119ae6125a3565b6114e561282a565b6119be6125a3565b600880549082905560408051828152602081018490527ffdbd093c59cbee429bd690ae9b51b1e04c652878e5e83a4044eb886d0d2ee521910161121f565b600260205260009081526040902080548190611a1790613044565b80601f0160208091040260200160405190810160405280929190818152602001828054611a4390613044565b8015611a905780601f10611a6557610100808354040283529160200191611a90565b820191906000526020600020905b815481529060010190602001808311611a7357829003601f168201915b505050505090806001018054611aa590613044565b80601f0160208091040260200160405190810160405280929190818152602001828054611ad190613044565b8015611b1e5780601f10611af357610100808354040283529160200191611b1e565b820191906000526020600020905b815481529060010190602001808311611b0157829003601f168201915b505050600290930154919250506001600160a01b0381169060ff600160a01b8204811691600160a81b90041685565b600081815260066020908152604091829020805483518184028101840190945280845260609392830182828015611ba357602002820191906000526020600020905b815481526020019060010190808311611b8f575b50505050509050919050565b60005b81811015610bbd57600754838383818110611bcf57611bcf613078565b9050602002013511158015611bfc57506000838383818110611bf357611bf3613078565b90506020020135115b15611c9557600060036000858585818110611c1957611c19613078565b905060200201358152602001908152602001600020905060006002811115611c4357611c43612aae565b600982015460ff166002811115611c5c57611c5c612aae565b148015611c6d575080600301544210155b15611c9357611c93848484818110611c8757611c87613078565b90506020020135612625565b505b600101611bb2565b806007548111158015611cb05750600081115b611ccc5760405162461bcd60e51b815260040161085f90612f04565b611cd461254e565b60008281526003602052604090206009810154610100900460ff16611d325760405162461bcd60e51b815260206004820152601460248201527310995d081b9bdd081c995cdbdb1d9959081e595d60621b604482015260640161085f565b600083815260046020908152604080832033845290915290208054611d885760405162461bcd60e51b815260206004820152600c60248201526b139bc818995d08199bdd5b9960a21b604482015260640161085f565b6001810154610100900460ff1615611ddb5760405162461bcd60e51b815260206004820152601660248201527514995dd85c9908185b1c9958591e4818db185a5b595960521b604482015260640161085f565b60008260040154836005015413611df3576001611df6565b60005b9050806001811115611e0a57611e0a612aae565b60018084015460ff1690811115611e2357611e23612aae565b14611e5b5760405162461bcd60e51b815260206004820152600860248201526710995d081b1bdcdd60c21b604482015260640161085f565b600083600701548460060154611e719190612f5b565b9050600080836001811115611e8857611e88612aae565b14611e97578460070154611e9d565b84600601545b9050600061271060095484611eb2919061308e565b611ebc91906130a5565b90506000611eca8285612f42565b9050600083828860000154611edf919061308e565b611ee991906130a5565b60018801805461ff001916610100179055604051909150339082156108fc029083906000818181858888f19350505050158015611f2a573d6000803e3d6000fd5b508215611f6d576001546040516001600160a01b039091169084156108fc029085906000818181858888f19350505050158015611f6b573d6000803e3d6000fd5b505b60405181815233908b907f24b5efa61dd1cfc659205a97fb8ed868f3cb8c81922bab2b96423e5de1de2cb79060200160405180910390a350505050505050506115506001600055565b60008181526002602081905260408220015481908390600160a01b900460ff166120225760405162461bcd60e51b815260206004820152601f60248201527f546f6b656e206e6f7420737570706f72746564206f7220696e61637469766500604482015260640161085f565b6000848152600260208190526040808320909101548151633fabe5a360e21b8152915183926001600160a01b039092169163feaf968c9160048083019260a09291908290030181865afa15801561207d573d6000803e3d6000fd5b505050506040513d601f19601f820116820180604052508101906120a19190612fb5565b509197509095505050505050915091565b6120ba612905565b8260075481111580156120cd5750600081115b6120e95760405162461bcd60e51b815260040161085f90612f04565b60008481526004602090815260408083206001600160a01b038716845282529182902082516060810190935280548352600180820154919284019160ff169081111561213757612137612aae565b600181111561214857612148612aae565b815260019190910154610100900460ff161515602090910152949350505050565b606081600754811115801561217e5750600081115b61219a5760405162461bcd60e51b815260040161085f90612f04565b600083815260056020908152604091829020805483518184028101840190945280845290918301828280156121f857602002820191906000526020600020905b81546001600160a01b031681526001909101906020018083116121da575b5050505050915050919050565b61220d6125a3565b600154600160a01b900460ff166122665760405162461bcd60e51b815260206004820152601760248201527f436f6e7472616374206d75737420626520706175736564000000000000000000604482015260640161085f565b600061227a6001546001600160a01b031690565b6001600160a01b03164760405160006040518083038185875af1925050503d80600081146122c4576040519150601f19603f3d011682016040523d82523d6000602084013e6122c9565b606091505b505090508061230c5760405162461bcd60e51b815260206004820152600f60248201526e151c985b9cd9995c8819985a5b1959608a1b604482015260640161085f565b50565b6123176125a3565b6001600160a01b03811661234157604051631e4fbdf760e01b81526000600482015260240161085f565b61230c816127d8565b6123526125a3565b6000836040516020016123659190613028565b60408051601f198184030181529181528151602092830120600081815260029384905291909120909101549091506001600160a01b0316156123e05760405162461bcd60e51b8152602060048201526014602482015273546f6b656e20616c72656164792065786973747360601b604482015260640161085f565b60008290506000816001600160a01b031663313ce5676040518163ffffffff1660e01b8152600401602060405180830381865afa158015612425573d6000803e3d6000fd5b505050506040513d601f19601f820116820180604052508101906124499190613005565b6040805160a08101825288815260208082018990526001600160a01b038616828401526001606083015260ff84166080830152600087815260029091529190912081519293509091819061249d9082613117565b50602082015160018201906124b29082613117565b5060408281015160029092018054606085015160809095015160ff16600160a81b0260ff60a81b19951515600160a01b026001600160a81b03199092166001600160a01b03909516949094171793909316919091179091555183907fbebb98910d9a14b896fa6aab5a5b6ced80d42eb330afc7677e83369b92edd44b9061253e908990899089906131d7565b60405180910390a2505050505050565b60026000540361257157604051633ee5aeb560e01b815260040160405180910390fd5b6002600055565b600154600160a01b900460ff16156114e55760405163d93c066560e01b815260040160405180910390fd5b6001546001600160a01b031633146114e55760405163118cdaa760e01b815233600482015260240161085f565b6125d861286d565b6001805460ff60a01b191690557f5db9ee0a495bf2e6ff9c91a7834c1ba4fdd244a5e8aa4e537bd38aeae4b073aa335b6040516001600160a01b03909116815260200160405180910390a1565b600081815260036020526040812090600982015460ff16600281111561264d5761264d612aae565b146126915760405162461bcd60e51b815260206004820152601460248201527310995d08185b1c9958591e481c995cdbdb1d995960621b604482015260640161085f565b80600301544210156126d85760405162461bcd60e51b815260206004820152601060248201526f426574207374696c6c2061637469766560801b604482015260640161085f565b60018101546000908152600260208190526040808320909101548151633fabe5a360e21b815291516001600160a01b039091169163feaf968c9160048083019260a09291908290030181865afa158015612736573d6000803e3d6000fd5b505050506040513d601f19601f8201168201806040525081019061275a9190612fb5565b5050506005840181905560098401805461ffff1916610102179055600484015490925060009150821361278e576001612791565b60005b90508260010154847fb599e79292fb73c22df02612bb35158bccfc41998867ee2dc200ca08e3e8838984846040516127ca929190612f87565b60405180910390a350505050565b600180546001600160a01b038381166001600160a01b0319831681179093556040519116919082907f8be0079c531659141344cd1fd0a4f28419497f9722a3daafe3b4186f6b6457e090600090a35050565b612832612578565b6001805460ff60a01b1916600160a01b1790557f62e78cea01bee320cd4e420270b5ea74000d11b0c9f74754ebdbfc544b05a2586126083390565b600154600160a01b900460ff166114e557604051638dfc202b60e01b815260040160405180910390fd5b604051806101600160405280600081526020016000801916815260200160008152602001600081526020016000815260200160008152602001600081526020016000815260200160008152602001600060028111156128f8576128f8612aae565b8152600060209091015290565b6040805160608101909152600080825260208201906128f8565b6000806040838503121561293257600080fd5b8235915060208301356002811061294857600080fd5b809150509250929050565b60006020828403121561296557600080fd5b5035919050565b6000806040838503121561297f57600080fd5b50508035926020909101359150565b80356001600160a01b03811681146129a557600080fd5b919050565b600080604083850312156129bd57600080fd5b823591506129cd6020840161298e565b90509250929050565b634e487b7160e01b600052604160045260246000fd5b600082601f8301126129fd57600080fd5b813567ffffffffffffffff80821115612a1857612a186129d6565b604051601f8301601f19908116603f01168101908282118183101715612a4057612a406129d6565b81604052838152866020858801011115612a5957600080fd5b836020870160208301376000602085830101528094505050505092915050565b600060208284031215612a8b57600080fd5b813567ffffffffffffffff811115612aa257600080fd5b61199e848285016129ec565b634e487b7160e01b600052602160045260246000fd5b60038110612ad457612ad4612aae565b9052565b6000610160820190508c82528b60208301528a60408301528960608301528860808301528760a08301528660c08301528560e083015284610100830152612b23610120830185612ac4565b8215156101408301529c9b505050505050505050505050565b60008060408385031215612b4f57600080fd5b823591506020830135801515811461294857600080fd5b600060208284031215612b7857600080fd5b612b818261298e565b9392505050565b60005b83811015612ba3578181015183820152602001612b8b565b50506000910152565b60008151808452612bc4816020860160208601612b88565b601f01601f19169290920160200192915050565b602081526000825160a06020840152612bf460c0840182612bac565b90506020840151601f19848303016040850152612c118282612bac565b91505060018060a01b03604085015116606084015260608401511515608084015260ff60808501511660a08401528091505092915050565b600061016082019050825182526020830151602083015260408301516040830152606083015160608301526080830151608083015260a083015160a083015260c083015160c083015260e083015160e083015261010080840151818401525061012080840151612cbb82850182612ac4565b5050610140928301511515919092015290565b60008083601f840112612ce057600080fd5b50813567ffffffffffffffff811115612cf857600080fd5b6020830191508360208260051b8501011115612d1357600080fd5b9250929050565b60008060208385031215612d2d57600080fd5b823567ffffffffffffffff811115612d4457600080fd5b612d5085828601612cce565b90969095509350505050565b6020808252825182820181905260009190848201906040850190845b81811015612d9457835183529284019291840191600101612d78565b50909695505050505050565b60028110612ad457612ad4612aae565b83815260608101612dc46020830185612da0565b8215156040830152949350505050565b60a081526000612de760a0830188612bac565b8281036020840152612df98188612bac565b6001600160a01b039690961660408401525050911515606083015260ff1660809091015292915050565b815181526020808301516060830191612e3e90840182612da0565b506040928301511515919092015290565b6020808252825182820181905260009190848201906040850190845b81811015612d945783516001600160a01b031683529284019291840191600101612e6b565b600080600060608486031215612ea557600080fd5b833567ffffffffffffffff80821115612ebd57600080fd5b612ec9878388016129ec565b94506020860135915080821115612edf57600080fd5b50612eec868287016129ec565b925050612efb6040850161298e565b90509250925092565b6020808252600e908201526d125b9d985b1a590818995d08125160921b604082015260600190565b634e487b7160e01b600052601160045260246000fd5b81810381811115612f5557612f55612f2c565b92915050565b80820180821115612f5557612f55612f2c565b600060018201612f8057612f80612f2c565b5060010190565b82815260408101612b816020830184612da0565b805169ffffffffffffffffffff811681146129a557600080fd5b600080600080600060a08688031215612fcd57600080fd5b612fd686612f9b565b9450602086015193506040860151925060608601519150612ff960808701612f9b565b90509295509295909350565b60006020828403121561301757600080fd5b815160ff81168114612b8157600080fd5b6000825161303a818460208701612b88565b9190910192915050565b600181811c9082168061305857607f821691505b6020821081036114cf57634e487b7160e01b600052602260045260246000fd5b634e487b7160e01b600052603260045260246000fd5b8082028115828204841417612f5557612f55612f2c565b6000826130c257634e487b7160e01b600052601260045260246000fd5b500490565b601f821115610bbd576000816000526020600020601f850160051c810160208610156130f05750805b601f850160051c820191505b8181101561310f578281556001016130fc565b505050505050565b815167ffffffffffffffff811115613131576131316129d6565b6131458161313f8454613044565b846130c7565b602080601f83116001811461317a57600084156131625750858301515b600019600386901b1c1916600185901b17855561310f565b600085815260208120601f198616915b828110156131a95788860151825594840194600190910190840161318a565b50858210156131c75787850151600019600388901b60f8161c191681555b5050505050600190811b01905550565b6060815260006131ea6060830186612bac565b82810360208401526131fc8186612bac565b91505060018060a01b038316604083015294935050505056fea26469706673582212202e6e320eaa97551655f46cb4f0f794b67bcab9787aad70f98323e3d6eab3577264736f6c63430008190033","linkReferences":{}},"methodIdentifiers":{"BETTING_CUTOFF()":"511e4198","BET_DURATION()":"e53d4c2d","addToken(string,string,address)":"fa3d24f2","betParticipants(uint256,uint256)":"12c20e84","bets(uint256)":"22af00fa","botAddress()":"4bf4f423","calculatePotentialReward(uint256,address)":"6fbd36a4","canResolveBet(uint256)":"80a818d5","claimReward(uint256)":"ae169a50","createBet(bytes32)":"107c68a3","currentBetId()":"5b4a9b51","emergencyWithdraw()":"db2e21bc","getActiveBetsForTokens(bytes32[])":"4db79861","getBetDetails(uint256)":"3df2967e","getBetParticipants(uint256)":"c5684099","getContractBalance()":"6f9fb98a","getCurrentBetId()":"ea0186d7","getLatestPrice(bytes32)":"b2ee2f01","getTokenBetHistory(bytes32)":"9d854c2b","getTokenId(string)":"1e7663bc","getTokenInfo(bytes32)":"2d8b70a1","getUserBet(uint256,address)":"c03fb87c","minimumBet()":"c38a8afd","owner()":"8da5cb5b","pause()":"8456cb59","paused()":"5c975abb","placeBet(uint256,uint8)":"03edf914","platformFeePercent()":"8c639a85","renounceOwnership()":"715018a6","resolveBet(uint256)":"4c36c36e","resolveBets(uint256[])":"a8159ce5","setBotAddress(address)":"2d4f40c6","setMinimumBet(uint256)":"8772ae3c","setPlatformFee(uint256)":"12e8e2c3","setTokenStatus(bytes32,bool)":"2aa1107f","tokenBetHistory(bytes32,uint256)":"45551b45","tokens(bytes32)":"904194a3","transferOwnership(address)":"f2fde38b","unpause()":"3f4ba83a","updateTokenOracle(bytes32,address)":"13f8e77d","userBets(uint256,address)":"7d06a8e1"},"id":26}